{
  "_format": "hh-sol-artifact-1",
  "contractName": "Raider",
  "sourceName": "contracts/Raider.sol",
  "abi": [
    {
      "inputs": [],
      "stateMutability": "nonpayable",
      "type": "constructor"
    },
    {
      "anonymous": false,
      "inputs": [
        {
          "indexed": true,
          "internalType": "uint256",
          "name": "discord_id",
          "type": "uint256"
        },
        {
          "indexed": true,
          "internalType": "address",
          "name": "user",
          "type": "address"
        },
        {
          "indexed": true,
          "internalType": "uint256",
          "name": "nft_id",
          "type": "uint256"
        },
        {
          "indexed": false,
          "internalType": "string",
          "name": "achievement",
          "type": "string"
        }
      ],
      "name": "AchievementMinted",
      "type": "event"
    },
    {
      "anonymous": false,
      "inputs": [
        {
          "indexed": true,
          "internalType": "address",
          "name": "owner",
          "type": "address"
        },
        {
          "indexed": true,
          "internalType": "address",
          "name": "approved",
          "type": "address"
        },
        {
          "indexed": true,
          "internalType": "uint256",
          "name": "tokenId",
          "type": "uint256"
        }
      ],
      "name": "Approval",
      "type": "event"
    },
    {
      "anonymous": false,
      "inputs": [
        {
          "indexed": true,
          "internalType": "address",
          "name": "owner",
          "type": "address"
        },
        {
          "indexed": true,
          "internalType": "address",
          "name": "operator",
          "type": "address"
        },
        {
          "indexed": false,
          "internalType": "bool",
          "name": "approved",
          "type": "bool"
        }
      ],
      "name": "ApprovalForAll",
      "type": "event"
    },
    {
      "anonymous": false,
      "inputs": [
        {
          "indexed": true,
          "internalType": "uint256",
          "name": "discord_id",
          "type": "uint256"
        },
        {
          "indexed": false,
          "internalType": "string",
          "name": "achievement",
          "type": "string"
        }
      ],
      "name": "NewAchievement",
      "type": "event"
    },
    {
      "anonymous": false,
      "inputs": [
        {
          "indexed": true,
          "internalType": "address",
          "name": "previousOwner",
          "type": "address"
        },
        {
          "indexed": true,
          "internalType": "address",
          "name": "newOwner",
          "type": "address"
        }
      ],
      "name": "OwnershipTransferred",
      "type": "event"
    },
    {
      "anonymous": false,
      "inputs": [
        {
          "indexed": true,
          "internalType": "uint256",
          "name": "discord_id",
          "type": "uint256"
        },
        {
          "indexed": true,
          "internalType": "address",
          "name": "user",
          "type": "address"
        },
        {
          "indexed": true,
          "internalType": "uint256",
          "name": "nft_id",
          "type": "uint256"
        }
      ],
      "name": "RaiderMinted",
      "type": "event"
    },
    {
      "anonymous": false,
      "inputs": [
        {
          "indexed": true,
          "internalType": "address",
          "name": "from",
          "type": "address"
        },
        {
          "indexed": true,
          "internalType": "address",
          "name": "to",
          "type": "address"
        },
        {
          "indexed": true,
          "internalType": "uint256",
          "name": "tokenId",
          "type": "uint256"
        }
      ],
      "name": "Transfer",
      "type": "event"
    },
    {
      "inputs": [
        {
          "internalType": "uint256",
          "name": "",
          "type": "uint256"
        }
      ],
      "name": "Raiders",
      "outputs": [
        {
          "internalType": "address",
          "name": "_address",
          "type": "address"
        },
        {
          "internalType": "uint256",
          "name": "raider_id",
          "type": "uint256"
        },
        {
          "internalType": "string",
          "name": "primary_skill",
          "type": "string"
        },
        {
          "internalType": "string",
          "name": "secondary_skill",
          "type": "string"
        }
      ],
      "stateMutability": "view",
      "type": "function"
    },
    {
      "inputs": [],
      "name": "achievement_id",
      "outputs": [
        {
          "internalType": "uint256",
          "name": "",
          "type": "uint256"
        }
      ],
      "stateMutability": "view",
      "type": "function"
    },
    {
      "inputs": [
        {
          "internalType": "uint256",
          "name": "discord_id",
          "type": "uint256"
        },
        {
          "internalType": "string",
          "name": "achievement",
          "type": "string"
        }
      ],
      "name": "addAchievement",
      "outputs": [],
      "stateMutability": "nonpayable",
      "type": "function"
    },
    {
      "inputs": [
        {
          "internalType": "address",
          "name": "to",
          "type": "address"
        },
        {
          "internalType": "uint256",
          "name": "tokenId",
          "type": "uint256"
        }
      ],
      "name": "approve",
      "outputs": [],
      "stateMutability": "nonpayable",
      "type": "function"
    },
    {
      "inputs": [
        {
          "internalType": "address",
          "name": "owner",
          "type": "address"
        }
      ],
      "name": "balanceOf",
      "outputs": [
        {
          "internalType": "uint256",
          "name": "",
          "type": "uint256"
        }
      ],
      "stateMutability": "view",
      "type": "function"
    },
    {
      "inputs": [
        {
          "internalType": "uint256",
          "name": "nft_id",
          "type": "uint256"
        },
        {
          "internalType": "string",
          "name": "new_metadata",
          "type": "string"
        }
      ],
      "name": "changeMetadata",
      "outputs": [],
      "stateMutability": "nonpayable",
      "type": "function"
    },
    {
      "inputs": [
        {
          "internalType": "uint256",
          "name": "discord_id",
          "type": "uint256"
        },
        {
          "internalType": "string",
          "name": "primary",
          "type": "string"
        },
        {
          "internalType": "string",
          "name": "secondary",
          "type": "string"
        },
        {
          "internalType": "address",
          "name": "_address",
          "type": "address"
        },
        {
          "internalType": "string",
          "name": "metadata",
          "type": "string"
        }
      ],
      "name": "createProfile",
      "outputs": [],
      "stateMutability": "nonpayable",
      "type": "function"
    },
    {
      "inputs": [
        {
          "internalType": "uint256",
          "name": "tokenId",
          "type": "uint256"
        }
      ],
      "name": "getApproved",
      "outputs": [
        {
          "internalType": "address",
          "name": "",
          "type": "address"
        }
      ],
      "stateMutability": "view",
      "type": "function"
    },
    {
      "inputs": [],
      "name": "id",
      "outputs": [
        {
          "internalType": "uint256",
          "name": "",
          "type": "uint256"
        }
      ],
      "stateMutability": "view",
      "type": "function"
    },
    {
      "inputs": [
        {
          "internalType": "address",
          "name": "owner",
          "type": "address"
        },
        {
          "internalType": "address",
          "name": "operator",
          "type": "address"
        }
      ],
      "name": "isApprovedForAll",
      "outputs": [
        {
          "internalType": "bool",
          "name": "",
          "type": "bool"
        }
      ],
      "stateMutability": "view",
      "type": "function"
    },
    {
      "inputs": [
        {
          "internalType": "uint256",
          "name": "discord_id",
          "type": "uint256"
        },
        {
          "internalType": "string",
          "name": "achievement",
          "type": "string"
        },
        {
          "internalType": "string",
          "name": "metadata",
          "type": "string"
        }
      ],
      "name": "mintAchievement",
      "outputs": [],
      "stateMutability": "nonpayable",
      "type": "function"
    },
    {
      "inputs": [
        {
          "internalType": "uint256",
          "name": "discord_id",
          "type": "uint256"
        },
        {
          "internalType": "string",
          "name": "metadata",
          "type": "string"
        }
      ],
      "name": "mintRaider",
      "outputs": [],
      "stateMutability": "nonpayable",
      "type": "function"
    },
    {
      "inputs": [],
      "name": "name",
      "outputs": [
        {
          "internalType": "string",
          "name": "",
          "type": "string"
        }
      ],
      "stateMutability": "view",
      "type": "function"
    },
    {
      "inputs": [],
      "name": "owner",
      "outputs": [
        {
          "internalType": "address",
          "name": "",
          "type": "address"
        }
      ],
      "stateMutability": "view",
      "type": "function"
    },
    {
      "inputs": [
        {
          "internalType": "uint256",
          "name": "tokenId",
          "type": "uint256"
        }
      ],
      "name": "ownerOf",
      "outputs": [
        {
          "internalType": "address",
          "name": "",
          "type": "address"
        }
      ],
      "stateMutability": "view",
      "type": "function"
    },
    {
      "inputs": [],
      "name": "renounceOwnership",
      "outputs": [],
      "stateMutability": "nonpayable",
      "type": "function"
    },
    {
      "inputs": [
        {
          "internalType": "address",
          "name": "from",
          "type": "address"
        },
        {
          "internalType": "address",
          "name": "to",
          "type": "address"
        },
        {
          "internalType": "uint256",
          "name": "tokenId",
          "type": "uint256"
        }
      ],
      "name": "safeTransferFrom",
      "outputs": [],
      "stateMutability": "nonpayable",
      "type": "function"
    },
    {
      "inputs": [
        {
          "internalType": "address",
          "name": "from",
          "type": "address"
        },
        {
          "internalType": "address",
          "name": "to",
          "type": "address"
        },
        {
          "internalType": "uint256",
          "name": "tokenId",
          "type": "uint256"
        },
        {
          "internalType": "bytes",
          "name": "_data",
          "type": "bytes"
        }
      ],
      "name": "safeTransferFrom",
      "outputs": [],
      "stateMutability": "nonpayable",
      "type": "function"
    },
    {
      "inputs": [
        {
          "internalType": "address",
          "name": "operator",
          "type": "address"
        },
        {
          "internalType": "bool",
          "name": "approved",
          "type": "bool"
        }
      ],
      "name": "setApprovalForAll",
      "outputs": [],
      "stateMutability": "nonpayable",
      "type": "function"
    },
    {
      "inputs": [
        {
          "internalType": "bytes4",
          "name": "interfaceId",
          "type": "bytes4"
        }
      ],
      "name": "supportsInterface",
      "outputs": [
        {
          "internalType": "bool",
          "name": "",
          "type": "bool"
        }
      ],
      "stateMutability": "view",
      "type": "function"
    },
    {
      "inputs": [],
      "name": "symbol",
      "outputs": [
        {
          "internalType": "string",
          "name": "",
          "type": "string"
        }
      ],
      "stateMutability": "view",
      "type": "function"
    },
    {
      "inputs": [
        {
          "internalType": "uint256",
          "name": "tokenId",
          "type": "uint256"
        }
      ],
      "name": "tokenURI",
      "outputs": [
        {
          "internalType": "string",
          "name": "",
          "type": "string"
        }
      ],
      "stateMutability": "view",
      "type": "function"
    },
    {
      "inputs": [
        {
          "internalType": "address",
          "name": "from",
          "type": "address"
        },
        {
          "internalType": "address",
          "name": "to",
          "type": "address"
        },
        {
          "internalType": "uint256",
          "name": "tokenId",
          "type": "uint256"
        }
      ],
      "name": "transferFrom",
      "outputs": [],
      "stateMutability": "nonpayable",
      "type": "function"
    },
    {
      "inputs": [
        {
          "internalType": "address",
          "name": "newOwner",
          "type": "address"
        }
      ],
      "name": "transferOwnership",
      "outputs": [],
      "stateMutability": "nonpayable",
      "type": "function"
    },
    {
      "inputs": [
        {
          "internalType": "uint256",
          "name": "discord_id",
          "type": "uint256"
        }
      ],
      "name": "viewAchievements",
      "outputs": [
        {
          "internalType": "string[]",
          "name": "",
          "type": "string[]"
        }
      ],
      "stateMutability": "view",
      "type": "function"
    }
  ],
  "bytecode": "0x608060405260016009556001600a553480156200001b57600080fd5b506040518060400160405280601281526020017f52616964204775696c642050726f66696c6500000000000000000000000000008152506040518060400160405280600681526020017f52414944455200000000000000000000000000000000000000000000000000008152508160009080519060200190620000a0929190620001b0565b508060019080519060200190620000b9929190620001b0565b505050620000dc620000d0620000e260201b60201c565b620000ea60201b60201c565b620002c5565b600033905090565b6000600760009054906101000a900473ffffffffffffffffffffffffffffffffffffffff16905081600760006101000a81548173ffffffffffffffffffffffffffffffffffffffff021916908373ffffffffffffffffffffffffffffffffffffffff1602179055508173ffffffffffffffffffffffffffffffffffffffff168173ffffffffffffffffffffffffffffffffffffffff167f8be0079c531659141344cd1fd0a4f28419497f9722a3daafe3b4186f6b6457e060405160405180910390a35050565b828054620001be906200028f565b90600052602060002090601f016020900481019282620001e257600085556200022e565b82601f10620001fd57805160ff19168380011785556200022e565b828001600101855582156200022e579182015b828111156200022d57825182559160200191906001019062000210565b5b5090506200023d919062000241565b5090565b5b808211156200025c57600081600090555060010162000242565b5090565b7f4e487b7100000000000000000000000000000000000000000000000000000000600052602260045260246000fd5b60006002820490506001821680620002a857607f821691505b60208210811415620002bf57620002be62000260565b5b50919050565b613fce80620002d56000396000f3fe608060405234801561001057600080fd5b50600436106101735760003560e01c80638da5cb5b116100de578063c16a2c8611610097578063e985e9c511610071578063e985e9c51461044b578063f2fde38b1461047b578063f6c3204814610497578063fadf9658146104b357610173565b8063c16a2c86146103ca578063c87b56dd146103e8578063d776f01e1461041857610173565b80638da5cb5b1461031c57806392d764cb1461033a57806395d89b4114610356578063a22cb46514610374578063af640d0f14610390578063b88d4fde146103ae57610173565b806323b872dd1161013057806323b872dd1461025e57806342842e0e1461027a57806355a65138146102965780636352211e146102b257806370a08231146102e2578063715018a61461031257610173565b806301ffc9a71461017857806302cc08d6146101a857806306fdde03146101c4578063081812fc146101e2578063095ea7b3146102125780631938d6741461022e575b600080fd5b610192600480360381019061018d919061292c565b6104cf565b60405161019f9190612974565b60405180910390f35b6101c260048036038101906101bd9190612a2a565b6105b1565b005b6101cc6106be565b6040516101d99190612b23565b60405180910390f35b6101fc60048036038101906101f79190612b45565b610750565b6040516102099190612bb3565b60405180910390f35b61022c60048036038101906102279190612bfa565b6107d5565b005b61024860048036038101906102439190612b45565b6108ed565b6040516102559190612d46565b60405180910390f35b61027860048036038101906102739190612d68565b6109dc565b005b610294600480360381019061028f9190612d68565b610a3c565b005b6102b060048036038101906102ab9190612a2a565b610a5c565b005b6102cc60048036038101906102c79190612b45565b610c21565b6040516102d99190612bb3565b60405180910390f35b6102fc60048036038101906102f79190612dbb565b610cd3565b6040516103099190612df7565b60405180910390f35b61031a610d8b565b005b610324610e13565b6040516103319190612bb3565b60405180910390f35b610354600480360381019061034f9190612a2a565b610e3d565b005b61035e610f0c565b60405161036b9190612b23565b60405180910390f35b61038e60048036038101906103899190612e3e565b610f9e565b005b610398610fb4565b6040516103a59190612df7565b60405180910390f35b6103c860048036038101906103c39190612fae565b610fba565b005b6103d261101c565b6040516103df9190612df7565b60405180910390f35b61040260048036038101906103fd9190612b45565b611022565b60405161040f9190612b23565b60405180910390f35b610432600480360381019061042d9190612b45565b611174565b6040516104429493929190613031565b60405180910390f35b61046560048036038101906104609190613084565b6112d4565b6040516104729190612974565b60405180910390f35b61049560048036038101906104909190612dbb565b611368565b005b6104b160048036038101906104ac91906130c4565b611460565b005b6104cd60048036038101906104c89190613159565b611656565b005b60007f80ac58cd000000000000000000000000000000000000000000000000000000007bffffffffffffffffffffffffffffffffffffffffffffffffffffffff1916827bffffffffffffffffffffffffffffffffffffffffffffffffffffffff1916148061059a57507f5b5e139f000000000000000000000000000000000000000000000000000000007bffffffffffffffffffffffffffffffffffffffffffffffffffffffff1916827bffffffffffffffffffffffffffffffffffffffffffffffffffffffff1916145b806105aa57506105a98261189e565b5b9050919050565b6105b9611908565b73ffffffffffffffffffffffffffffffffffffffff166105d7610e13565b73ffffffffffffffffffffffffffffffffffffffff161461062d576040517f08c379a000000000000000000000000000000000000000000000000000000000815260040161062490613281565b60405180910390fd5b6008600084815260200190815260200160002060040182829091806001815401808255809150506001900390600052602060002001600090919290919290919290919250919061067e92919061263a565b50827f52efc8db2469863aac5faa978b3905eafb5c0c8876ac7f66ce1402fdc2549e1683836040516106b19291906132ce565b60405180910390a2505050565b6060600080546106cd90613321565b80601f01602080910402602001604051908101604052809291908181526020018280546106f990613321565b80156107465780601f1061071b57610100808354040283529160200191610746565b820191906000526020600020905b81548152906001019060200180831161072957829003601f168201915b5050505050905090565b600061075b82611910565b61079a576040517f08c379a0000000000000000000000000000000000000000000000000000000008152600401610791906133c5565b60405180910390fd5b6004600083815260200190815260200160002060009054906101000a900473ffffffffffffffffffffffffffffffffffffffff169050919050565b60006107e082610c21565b90508073ffffffffffffffffffffffffffffffffffffffff168373ffffffffffffffffffffffffffffffffffffffff161415610851576040517f08c379a000000000000000000000000000000000000000000000000000000000815260040161084890613457565b60405180910390fd5b8073ffffffffffffffffffffffffffffffffffffffff16610870611908565b73ffffffffffffffffffffffffffffffffffffffff16148061089f575061089e81610899611908565b6112d4565b5b6108de576040517f08c379a00000000000000000000000000000000000000000000000000000000081526004016108d5906134e9565b60405180910390fd5b6108e8838361197c565b505050565b606060086000838152602001908152602001600020600401805480602002602001604051908101604052809291908181526020016000905b828210156109d157838290600052602060002001805461094490613321565b80601f016020809104026020016040519081016040528092919081815260200182805461097090613321565b80156109bd5780601f10610992576101008083540402835291602001916109bd565b820191906000526020600020905b8154815290600101906020018083116109a057829003601f168201915b505050505081526020019060010190610925565b505050509050919050565b6109ed6109e7611908565b82611a35565b610a2c576040517f08c379a0000000000000000000000000000000000000000000000000000000008152600401610a239061357b565b60405180910390fd5b610a37838383611b13565b505050565b610a5783838360405180602001604052806000815250610fba565b505050565b610a64611908565b73ffffffffffffffffffffffffffffffffffffffff16610a82610e13565b73ffffffffffffffffffffffffffffffffffffffff1614610ad8576040517f08c379a0000000000000000000000000000000000000000000000000000000008152600401610acf90613281565b60405180910390fd5b6009546008600085815260200190815260200160002060010181905550610b376008600085815260200190815260200160002060000160009054906101000a900473ffffffffffffffffffffffffffffffffffffffff16600954611d7a565b610b8760095483838080601f016020809104026020016040519081016040528093929190818152602001838380828437600081840152601f19601f82011690508083019250505050505050611f54565b6009546008600085815260200190815260200160002060000160009054906101000a900473ffffffffffffffffffffffffffffffffffffffff1673ffffffffffffffffffffffffffffffffffffffff16847fa2af2de2e31dddf092ba96021d5095b0e5330e17394a3db7ad2ac20ac8d9619b60405160405180910390a460096000815480929190610c17906135ca565b9190505550505050565b6000806002600084815260200190815260200160002060009054906101000a900473ffffffffffffffffffffffffffffffffffffffff169050600073ffffffffffffffffffffffffffffffffffffffff168173ffffffffffffffffffffffffffffffffffffffff161415610cca576040517f08c379a0000000000000000000000000000000000000000000000000000000008152600401610cc190613685565b60405180910390fd5b80915050919050565b60008073ffffffffffffffffffffffffffffffffffffffff168273ffffffffffffffffffffffffffffffffffffffff161415610d44576040517f08c379a0000000000000000000000000000000000000000000000000000000008152600401610d3b90613717565b60405180910390fd5b600360008373ffffffffffffffffffffffffffffffffffffffff1673ffffffffffffffffffffffffffffffffffffffff168152602001908152602001600020549050919050565b610d93611908565b73ffffffffffffffffffffffffffffffffffffffff16610db1610e13565b73ffffffffffffffffffffffffffffffffffffffff1614610e07576040517f08c379a0000000000000000000000000000000000000000000000000000000008152600401610dfe90613281565b60405180910390fd5b610e116000611fc8565b565b6000600760009054906101000a900473ffffffffffffffffffffffffffffffffffffffff16905090565b610e45611908565b73ffffffffffffffffffffffffffffffffffffffff16610e63610e13565b73ffffffffffffffffffffffffffffffffffffffff1614610eb9576040517f08c379a0000000000000000000000000000000000000000000000000000000008152600401610eb090613281565b60405180910390fd5b610f078383838080601f016020809104026020016040519081016040528093929190818152602001838380828437600081840152601f19601f82011690508083019250505050505050611f54565b505050565b606060018054610f1b90613321565b80601f0160208091040260200160405190810160405280929190818152602001828054610f4790613321565b8015610f945780601f10610f6957610100808354040283529160200191610f94565b820191906000526020600020905b815481529060010190602001808311610f7757829003601f168201915b5050505050905090565b610fb0610fa9611908565b838361208e565b5050565b60095481565b610fcb610fc5611908565b83611a35565b61100a576040517f08c379a00000000000000000000000000000000000000000000000000000000081526004016110019061357b565b60405180910390fd5b611016848484846121fb565b50505050565b600a5481565b606061102d82611910565b61106c576040517f08c379a0000000000000000000000000000000000000000000000000000000008152600401611063906137a9565b60405180910390fd5b600060066000848152602001908152602001600020805461108c90613321565b80601f01602080910402602001604051908101604052809291908181526020018280546110b890613321565b80156111055780601f106110da57610100808354040283529160200191611105565b820191906000526020600020905b8154815290600101906020018083116110e857829003601f168201915b505050505090506000611116612257565b905060008151141561112c57819250505061116f565b600082511115611161578082604051602001611149929190613805565b6040516020818303038152906040529250505061116f565b61116a8461226e565b925050505b919050565b60086020528060005260406000206000915090508060000160009054906101000a900473ffffffffffffffffffffffffffffffffffffffff16908060010154908060020180546111c390613321565b80601f01602080910402602001604051908101604052809291908181526020018280546111ef90613321565b801561123c5780601f106112115761010080835404028352916020019161123c565b820191906000526020600020905b81548152906001019060200180831161121f57829003601f168201915b50505050509080600301805461125190613321565b80601f016020809104026020016040519081016040528092919081815260200182805461127d90613321565b80156112ca5780601f1061129f576101008083540402835291602001916112ca565b820191906000526020600020905b8154815290600101906020018083116112ad57829003601f168201915b5050505050905084565b6000600560008473ffffffffffffffffffffffffffffffffffffffff1673ffffffffffffffffffffffffffffffffffffffff16815260200190815260200160002060008373ffffffffffffffffffffffffffffffffffffffff1673ffffffffffffffffffffffffffffffffffffffff16815260200190815260200160002060009054906101000a900460ff16905092915050565b611370611908565b73ffffffffffffffffffffffffffffffffffffffff1661138e610e13565b73ffffffffffffffffffffffffffffffffffffffff16146113e4576040517f08c379a00000000000000000000000000000000000000000000000000000000081526004016113db90613281565b60405180910390fd5b600073ffffffffffffffffffffffffffffffffffffffff168173ffffffffffffffffffffffffffffffffffffffff161415611454576040517f08c379a000000000000000000000000000000000000000000000000000000000815260040161144b9061389b565b60405180910390fd5b61145d81611fc8565b50565b611468611908565b73ffffffffffffffffffffffffffffffffffffffff16611486610e13565b73ffffffffffffffffffffffffffffffffffffffff16146114dc576040517f08c379a00000000000000000000000000000000000000000000000000000000081526004016114d390613281565b60405180910390fd5b60086000868152602001908152602001600020600501600a54908060018154018082558091505060019003906000526020600020016000909190919091505561155d6008600087815260200190815260200160002060000160009054906101000a900473ffffffffffffffffffffffffffffffffffffffff16600a54611d7a565b6115ad600a5483838080601f016020809104026020016040519081016040528093929190818152602001838380828437600081840152601f19601f82011690508083019250505050505050611f54565b600a546008600087815260200190815260200160002060000160009054906101000a900473ffffffffffffffffffffffffffffffffffffffff1673ffffffffffffffffffffffffffffffffffffffff16867f1b0283a568fea6be4a4e194f6fe01d5a79e3faadccd1c9a0267ca6adc7438bb9878760405161162f9291906132ce565b60405180910390a4600a600081548092919061164a906135ca565b91905055505050505050565b61165e611908565b73ffffffffffffffffffffffffffffffffffffffff1661167c610e13565b73ffffffffffffffffffffffffffffffffffffffff16146116d2576040517f08c379a00000000000000000000000000000000000000000000000000000000081526004016116c990613281565b60405180910390fd5b6116da6126c0565b87878080601f016020809104026020016040519081016040528093929190818152602001838380828437600081840152601f19601f82011690508083019250505050505050816040018190525085858080601f016020809104026020016040519081016040528093929190818152602001838380828437600081840152601f19601f82011690508083019250505050505050816060018190525083816000019073ffffffffffffffffffffffffffffffffffffffff16908173ffffffffffffffffffffffffffffffffffffffff168152505080600860008b815260200190815260200160002060008201518160000160006101000a81548173ffffffffffffffffffffffffffffffffffffffff021916908373ffffffffffffffffffffffffffffffffffffffff16021790555060208201518160010155604082015181600201908051906020019061182d92919061270c565b50606082015181600301908051906020019061184a92919061270c565b506080820151816004019080519060200190611867929190612792565b5060a08201518160050190805190602001906118849291906127f2565b50905050611893898484610a5c565b505050505050505050565b60007f01ffc9a7000000000000000000000000000000000000000000000000000000007bffffffffffffffffffffffffffffffffffffffffffffffffffffffff1916827bffffffffffffffffffffffffffffffffffffffffffffffffffffffff1916149050919050565b600033905090565b60008073ffffffffffffffffffffffffffffffffffffffff166002600084815260200190815260200160002060009054906101000a900473ffffffffffffffffffffffffffffffffffffffff1673ffffffffffffffffffffffffffffffffffffffff1614159050919050565b816004600083815260200190815260200160002060006101000a81548173ffffffffffffffffffffffffffffffffffffffff021916908373ffffffffffffffffffffffffffffffffffffffff160217905550808273ffffffffffffffffffffffffffffffffffffffff166119ef83610c21565b73ffffffffffffffffffffffffffffffffffffffff167f8c5be1e5ebec7d5bd14f71427d1e84f3dd0314c0f7b2291e5b200ac8c7c3b92560405160405180910390a45050565b6000611a4082611910565b611a7f576040517f08c379a0000000000000000000000000000000000000000000000000000000008152600401611a769061392d565b60405180910390fd5b6000611a8a83610c21565b90508073ffffffffffffffffffffffffffffffffffffffff168473ffffffffffffffffffffffffffffffffffffffff161480611af957508373ffffffffffffffffffffffffffffffffffffffff16611ae184610750565b73ffffffffffffffffffffffffffffffffffffffff16145b80611b0a5750611b0981856112d4565b5b91505092915050565b8273ffffffffffffffffffffffffffffffffffffffff16611b3382610c21565b73ffffffffffffffffffffffffffffffffffffffff1614611b89576040517f08c379a0000000000000000000000000000000000000000000000000000000008152600401611b80906139bf565b60405180910390fd5b600073ffffffffffffffffffffffffffffffffffffffff168273ffffffffffffffffffffffffffffffffffffffff161415611bf9576040517f08c379a0000000000000000000000000000000000000000000000000000000008152600401611bf090613a51565b60405180910390fd5b611c04838383612315565b611c0f60008261197c565b6001600360008573ffffffffffffffffffffffffffffffffffffffff1673ffffffffffffffffffffffffffffffffffffffff1681526020019081526020016000206000828254611c5f9190613a71565b925050819055506001600360008473ffffffffffffffffffffffffffffffffffffffff1673ffffffffffffffffffffffffffffffffffffffff1681526020019081526020016000206000828254611cb69190613aa5565b92505081905550816002600083815260200190815260200160002060006101000a81548173ffffffffffffffffffffffffffffffffffffffff021916908373ffffffffffffffffffffffffffffffffffffffff160217905550808273ffffffffffffffffffffffffffffffffffffffff168473ffffffffffffffffffffffffffffffffffffffff167fddf252ad1be2c89b69c2b068fc378daa952ba7f163c4a11628f55a4df523b3ef60405160405180910390a4611d7583838361231a565b505050565b600073ffffffffffffffffffffffffffffffffffffffff168273ffffffffffffffffffffffffffffffffffffffff161415611dea576040517f08c379a0000000000000000000000000000000000000000000000000000000008152600401611de190613b47565b60405180910390fd5b611df381611910565b15611e33576040517f08c379a0000000000000000000000000000000000000000000000000000000008152600401611e2a90613bb3565b60405180910390fd5b611e3f60008383612315565b6001600360008473ffffffffffffffffffffffffffffffffffffffff1673ffffffffffffffffffffffffffffffffffffffff1681526020019081526020016000206000828254611e8f9190613aa5565b92505081905550816002600083815260200190815260200160002060006101000a81548173ffffffffffffffffffffffffffffffffffffffff021916908373ffffffffffffffffffffffffffffffffffffffff160217905550808273ffffffffffffffffffffffffffffffffffffffff16600073ffffffffffffffffffffffffffffffffffffffff167fddf252ad1be2c89b69c2b068fc378daa952ba7f163c4a11628f55a4df523b3ef60405160405180910390a4611f506000838361231a565b5050565b611f5d82611910565b611f9c576040517f08c379a0000000000000000000000000000000000000000000000000000000008152600401611f9390613c45565b60405180910390fd5b80600660008481526020019081526020016000209080519060200190611fc392919061270c565b505050565b6000600760009054906101000a900473ffffffffffffffffffffffffffffffffffffffff16905081600760006101000a81548173ffffffffffffffffffffffffffffffffffffffff021916908373ffffffffffffffffffffffffffffffffffffffff1602179055508173ffffffffffffffffffffffffffffffffffffffff168173ffffffffffffffffffffffffffffffffffffffff167f8be0079c531659141344cd1fd0a4f28419497f9722a3daafe3b4186f6b6457e060405160405180910390a35050565b8173ffffffffffffffffffffffffffffffffffffffff168373ffffffffffffffffffffffffffffffffffffffff1614156120fd576040517f08c379a00000000000000000000000000000000000000000000000000000000081526004016120f490613cb1565b60405180910390fd5b80600560008573ffffffffffffffffffffffffffffffffffffffff1673ffffffffffffffffffffffffffffffffffffffff16815260200190815260200160002060008473ffffffffffffffffffffffffffffffffffffffff1673ffffffffffffffffffffffffffffffffffffffff16815260200190815260200160002060006101000a81548160ff0219169083151502179055508173ffffffffffffffffffffffffffffffffffffffff168373ffffffffffffffffffffffffffffffffffffffff167f17307eab39ab6107e8899845ad3d59bd9653f200f220920489ca2b5937696c31836040516121ee9190612974565b60405180910390a3505050565b612206848484611b13565b6122128484848461231f565b612251576040517f08c379a000000000000000000000000000000000000000000000000000000000815260040161224890613d43565b60405180910390fd5b50505050565b606060405180602001604052806000815250905090565b606061227982611910565b6122b8576040517f08c379a00000000000000000000000000000000000000000000000000000000081526004016122af90613dd5565b60405180910390fd5b60006122c2612257565b905060008151116122e2576040518060200160405280600081525061230d565b806122ec846124b6565b6040516020016122fd929190613805565b6040516020818303038152906040525b915050919050565b505050565b505050565b60006123408473ffffffffffffffffffffffffffffffffffffffff16612617565b156124a9578373ffffffffffffffffffffffffffffffffffffffff1663150b7a02612369611908565b8786866040518563ffffffff1660e01b815260040161238b9493929190613e4a565b602060405180830381600087803b1580156123a557600080fd5b505af19250505080156123d657506040513d601f19601f820116820180604052508101906123d39190613eab565b60015b612459573d8060008114612406576040519150601f19603f3d011682016040523d82523d6000602084013e61240b565b606091505b50600081511415612451576040517f08c379a000000000000000000000000000000000000000000000000000000000815260040161244890613d43565b60405180910390fd5b805181602001fd5b63150b7a0260e01b7bffffffffffffffffffffffffffffffffffffffffffffffffffffffff1916817bffffffffffffffffffffffffffffffffffffffffffffffffffffffff1916149150506124ae565b600190505b949350505050565b606060008214156124fe576040518060400160405280600181526020017f30000000000000000000000000000000000000000000000000000000000000008152509050612612565b600082905060005b60008214612530578080612519906135ca565b915050600a826125299190613f07565b9150612506565b60008167ffffffffffffffff81111561254c5761254b612e83565b5b6040519080825280601f01601f19166020018201604052801561257e5781602001600182028036833780820191505090505b5090505b6000851461260b576001826125979190613a71565b9150600a856125a69190613f38565b60306125b29190613aa5565b60f81b8183815181106125c8576125c7613f69565b5b60200101907effffffffffffffffffffffffffffffffffffffffffffffffffffffffffffff1916908160001a905350600a856126049190613f07565b9450612582565b8093505050505b919050565b6000808273ffffffffffffffffffffffffffffffffffffffff163b119050919050565b82805461264690613321565b90600052602060002090601f01602090048101928261266857600085556126af565b82601f1061268157803560ff19168380011785556126af565b828001600101855582156126af579182015b828111156126ae578235825591602001919060010190612693565b5b5090506126bc919061283f565b5090565b6040518060c00160405280600073ffffffffffffffffffffffffffffffffffffffff16815260200160008152602001606081526020016060815260200160608152602001606081525090565b82805461271890613321565b90600052602060002090601f01602090048101928261273a5760008555612781565b82601f1061275357805160ff1916838001178555612781565b82800160010185558215612781579182015b82811115612780578251825591602001919060010190612765565b5b50905061278e919061283f565b5090565b8280548282559060005260206000209081019282156127e1579160200282015b828111156127e05782518290805190602001906127d092919061270c565b50916020019190600101906127b2565b5b5090506127ee919061285c565b5090565b82805482825590600052602060002090810192821561282e579160200282015b8281111561282d578251825591602001919060010190612812565b5b50905061283b919061283f565b5090565b5b80821115612858576000816000905550600101612840565b5090565b5b8082111561287c57600081816128739190612880565b5060010161285d565b5090565b50805461288c90613321565b6000825580601f1061289e57506128bd565b601f0160209004906000526020600020908101906128bc919061283f565b5b50565b6000604051905090565b600080fd5b600080fd5b60007fffffffff0000000000000000000000000000000000000000000000000000000082169050919050565b612909816128d4565b811461291457600080fd5b50565b60008135905061292681612900565b92915050565b600060208284031215612942576129416128ca565b5b600061295084828501612917565b91505092915050565b60008115159050919050565b61296e81612959565b82525050565b60006020820190506129896000830184612965565b92915050565b6000819050919050565b6129a28161298f565b81146129ad57600080fd5b50565b6000813590506129bf81612999565b92915050565b600080fd5b600080fd5b600080fd5b60008083601f8401126129ea576129e96129c5565b5b8235905067ffffffffffffffff811115612a0757612a066129ca565b5b602083019150836001820283011115612a2357612a226129cf565b5b9250929050565b600080600060408486031215612a4357612a426128ca565b5b6000612a51868287016129b0565b935050602084013567ffffffffffffffff811115612a7257612a716128cf565b5b612a7e868287016129d4565b92509250509250925092565b600081519050919050565b600082825260208201905092915050565b60005b83811015612ac4578082015181840152602081019050612aa9565b83811115612ad3576000848401525b50505050565b6000601f19601f8301169050919050565b6000612af582612a8a565b612aff8185612a95565b9350612b0f818560208601612aa6565b612b1881612ad9565b840191505092915050565b60006020820190508181036000830152612b3d8184612aea565b905092915050565b600060208284031215612b5b57612b5a6128ca565b5b6000612b69848285016129b0565b91505092915050565b600073ffffffffffffffffffffffffffffffffffffffff82169050919050565b6000612b9d82612b72565b9050919050565b612bad81612b92565b82525050565b6000602082019050612bc86000830184612ba4565b92915050565b612bd781612b92565b8114612be257600080fd5b50565b600081359050612bf481612bce565b92915050565b60008060408385031215612c1157612c106128ca565b5b6000612c1f85828601612be5565b9250506020612c30858286016129b0565b9150509250929050565b600081519050919050565b600082825260208201905092915050565b6000819050602082019050919050565b600082825260208201905092915050565b6000612c8282612a8a565b612c8c8185612c66565b9350612c9c818560208601612aa6565b612ca581612ad9565b840191505092915050565b6000612cbc8383612c77565b905092915050565b6000602082019050919050565b6000612cdc82612c3a565b612ce68185612c45565b935083602082028501612cf885612c56565b8060005b85811015612d345784840389528151612d158582612cb0565b9450612d2083612cc4565b925060208a01995050600181019050612cfc565b50829750879550505050505092915050565b60006020820190508181036000830152612d608184612cd1565b905092915050565b600080600060608486031215612d8157612d806128ca565b5b6000612d8f86828701612be5565b9350506020612da086828701612be5565b9250506040612db1868287016129b0565b9150509250925092565b600060208284031215612dd157612dd06128ca565b5b6000612ddf84828501612be5565b91505092915050565b612df18161298f565b82525050565b6000602082019050612e0c6000830184612de8565b92915050565b612e1b81612959565b8114612e2657600080fd5b50565b600081359050612e3881612e12565b92915050565b60008060408385031215612e5557612e546128ca565b5b6000612e6385828601612be5565b9250506020612e7485828601612e29565b9150509250929050565b600080fd5b7f4e487b7100000000000000000000000000000000000000000000000000000000600052604160045260246000fd5b612ebb82612ad9565b810181811067ffffffffffffffff82111715612eda57612ed9612e83565b5b80604052505050565b6000612eed6128c0565b9050612ef98282612eb2565b919050565b600067ffffffffffffffff821115612f1957612f18612e83565b5b612f2282612ad9565b9050602081019050919050565b82818337600083830152505050565b6000612f51612f4c84612efe565b612ee3565b905082815260208101848484011115612f6d57612f6c612e7e565b5b612f78848285612f2f565b509392505050565b600082601f830112612f9557612f946129c5565b5b8135612fa5848260208601612f3e565b91505092915050565b60008060008060808587031215612fc857612fc76128ca565b5b6000612fd687828801612be5565b9450506020612fe787828801612be5565b9350506040612ff8878288016129b0565b925050606085013567ffffffffffffffff811115613019576130186128cf565b5b61302587828801612f80565b91505092959194509250565b60006080820190506130466000830187612ba4565b6130536020830186612de8565b81810360408301526130658185612aea565b905081810360608301526130798184612aea565b905095945050505050565b6000806040838503121561309b5761309a6128ca565b5b60006130a985828601612be5565b92505060206130ba85828601612be5565b9150509250929050565b6000806000806000606086880312156130e0576130df6128ca565b5b60006130ee888289016129b0565b955050602086013567ffffffffffffffff81111561310f5761310e6128cf565b5b61311b888289016129d4565b9450945050604086013567ffffffffffffffff81111561313e5761313d6128cf565b5b61314a888289016129d4565b92509250509295509295909350565b60008060008060008060008060a0898b031215613179576131786128ca565b5b60006131878b828c016129b0565b985050602089013567ffffffffffffffff8111156131a8576131a76128cf565b5b6131b48b828c016129d4565b9750975050604089013567ffffffffffffffff8111156131d7576131d66128cf565b5b6131e38b828c016129d4565b955095505060606131f68b828c01612be5565b935050608089013567ffffffffffffffff811115613217576132166128cf565b5b6132238b828c016129d4565b92509250509295985092959890939650565b7f4f776e61626c653a2063616c6c6572206973206e6f7420746865206f776e6572600082015250565b600061326b602083612a95565b915061327682613235565b602082019050919050565b6000602082019050818103600083015261329a8161325e565b9050919050565b60006132ad8385612a95565b93506132ba838584612f2f565b6132c383612ad9565b840190509392505050565b600060208201905081810360008301526132e98184866132a1565b90509392505050565b7f4e487b7100000000000000000000000000000000000000000000000000000000600052602260045260246000fd5b6000600282049050600182168061333957607f821691505b6020821081141561334d5761334c6132f2565b5b50919050565b7f4552433732313a20617070726f76656420717565727920666f72206e6f6e657860008201527f697374656e7420746f6b656e0000000000000000000000000000000000000000602082015250565b60006133af602c83612a95565b91506133ba82613353565b604082019050919050565b600060208201905081810360008301526133de816133a2565b9050919050565b7f4552433732313a20617070726f76616c20746f2063757272656e74206f776e6560008201527f7200000000000000000000000000000000000000000000000000000000000000602082015250565b6000613441602183612a95565b915061344c826133e5565b604082019050919050565b6000602082019050818103600083015261347081613434565b9050919050565b7f4552433732313a20617070726f76652063616c6c6572206973206e6f74206f7760008201527f6e6572206e6f7220617070726f76656420666f7220616c6c0000000000000000602082015250565b60006134d3603883612a95565b91506134de82613477565b604082019050919050565b60006020820190508181036000830152613502816134c6565b9050919050565b7f4552433732313a207472616e736665722063616c6c6572206973206e6f74206f60008201527f776e6572206e6f7220617070726f766564000000000000000000000000000000602082015250565b6000613565603183612a95565b915061357082613509565b604082019050919050565b6000602082019050818103600083015261359481613558565b9050919050565b7f4e487b7100000000000000000000000000000000000000000000000000000000600052601160045260246000fd5b60006135d58261298f565b91507fffffffffffffffffffffffffffffffffffffffffffffffffffffffffffffffff8214156136085761360761359b565b5b600182019050919050565b7f4552433732313a206f776e657220717565727920666f72206e6f6e657869737460008201527f656e7420746f6b656e0000000000000000000000000000000000000000000000602082015250565b600061366f602983612a95565b915061367a82613613565b604082019050919050565b6000602082019050818103600083015261369e81613662565b9050919050565b7f4552433732313a2062616c616e636520717565727920666f7220746865207a6560008201527f726f206164647265737300000000000000000000000000000000000000000000602082015250565b6000613701602a83612a95565b915061370c826136a5565b604082019050919050565b60006020820190508181036000830152613730816136f4565b9050919050565b7f45524337323155524953746f726167653a2055524920717565727920666f722060008201527f6e6f6e6578697374656e7420746f6b656e000000000000000000000000000000602082015250565b6000613793603183612a95565b915061379e82613737565b604082019050919050565b600060208201905081810360008301526137c281613786565b9050919050565b600081905092915050565b60006137df82612a8a565b6137e981856137c9565b93506137f9818560208601612aa6565b80840191505092915050565b600061381182856137d4565b915061381d82846137d4565b91508190509392505050565b7f4f776e61626c653a206e6577206f776e657220697320746865207a65726f206160008201527f6464726573730000000000000000000000000000000000000000000000000000602082015250565b6000613885602683612a95565b915061389082613829565b604082019050919050565b600060208201905081810360008301526138b481613878565b9050919050565b7f4552433732313a206f70657261746f7220717565727920666f72206e6f6e657860008201527f697374656e7420746f6b656e0000000000000000000000000000000000000000602082015250565b6000613917602c83612a95565b9150613922826138bb565b604082019050919050565b600060208201905081810360008301526139468161390a565b9050919050565b7f4552433732313a207472616e736665722066726f6d20696e636f72726563742060008201527f6f776e6572000000000000000000000000000000000000000000000000000000602082015250565b60006139a9602583612a95565b91506139b48261394d565b604082019050919050565b600060208201905081810360008301526139d88161399c565b9050919050565b7f4552433732313a207472616e7366657220746f20746865207a65726f2061646460008201527f7265737300000000000000000000000000000000000000000000000000000000602082015250565b6000613a3b602483612a95565b9150613a46826139df565b604082019050919050565b60006020820190508181036000830152613a6a81613a2e565b9050919050565b6000613a7c8261298f565b9150613a878361298f565b925082821015613a9a57613a9961359b565b5b828203905092915050565b6000613ab08261298f565b9150613abb8361298f565b9250827fffffffffffffffffffffffffffffffffffffffffffffffffffffffffffffffff03821115613af057613aef61359b565b5b828201905092915050565b7f4552433732313a206d696e7420746f20746865207a65726f2061646472657373600082015250565b6000613b31602083612a95565b9150613b3c82613afb565b602082019050919050565b60006020820190508181036000830152613b6081613b24565b9050919050565b7f4552433732313a20746f6b656e20616c7265616479206d696e74656400000000600082015250565b6000613b9d601c83612a95565b9150613ba882613b67565b602082019050919050565b60006020820190508181036000830152613bcc81613b90565b9050919050565b7f45524337323155524953746f726167653a2055524920736574206f66206e6f6e60008201527f6578697374656e7420746f6b656e000000000000000000000000000000000000602082015250565b6000613c2f602e83612a95565b9150613c3a82613bd3565b604082019050919050565b60006020820190508181036000830152613c5e81613c22565b9050919050565b7f4552433732313a20617070726f766520746f2063616c6c657200000000000000600082015250565b6000613c9b601983612a95565b9150613ca682613c65565b602082019050919050565b60006020820190508181036000830152613cca81613c8e565b9050919050565b7f4552433732313a207472616e7366657220746f206e6f6e20455243373231526560008201527f63656976657220696d706c656d656e7465720000000000000000000000000000602082015250565b6000613d2d603283612a95565b9150613d3882613cd1565b604082019050919050565b60006020820190508181036000830152613d5c81613d20565b9050919050565b7f4552433732314d657461646174613a2055524920717565727920666f72206e6f60008201527f6e6578697374656e7420746f6b656e0000000000000000000000000000000000602082015250565b6000613dbf602f83612a95565b9150613dca82613d63565b604082019050919050565b60006020820190508181036000830152613dee81613db2565b9050919050565b600081519050919050565b600082825260208201905092915050565b6000613e1c82613df5565b613e268185613e00565b9350613e36818560208601612aa6565b613e3f81612ad9565b840191505092915050565b6000608082019050613e5f6000830187612ba4565b613e6c6020830186612ba4565b613e796040830185612de8565b8181036060830152613e8b8184613e11565b905095945050505050565b600081519050613ea581612900565b92915050565b600060208284031215613ec157613ec06128ca565b5b6000613ecf84828501613e96565b91505092915050565b7f4e487b7100000000000000000000000000000000000000000000000000000000600052601260045260246000fd5b6000613f128261298f565b9150613f1d8361298f565b925082613f2d57613f2c613ed8565b5b828204905092915050565b6000613f438261298f565b9150613f4e8361298f565b925082613f5e57613f5d613ed8565b5b828206905092915050565b7f4e487b7100000000000000000000000000000000000000000000000000000000600052603260045260246000fdfea2646970667358221220572367826b7daee87c20c1b2806ff91077050620cdbdb14dcfd1dc479974975364736f6c63430008090033",
  "linkReferences": {},
  "deployedLinkReferences": {}
}