{
  "_format": "hh-sol-artifact-1",
  "contractName": "Raider",
  "sourceName": "contracts/Raider.sol",
  "abi": [
    {
      "inputs": [],
      "stateMutability": "nonpayable",
      "type": "constructor"
    },
    {
      "anonymous": false,
      "inputs": [
        {
          "indexed": true,
          "internalType": "address",
          "name": "owner",
          "type": "address"
        },
        {
          "indexed": true,
          "internalType": "address",
          "name": "approved",
          "type": "address"
        },
        {
          "indexed": true,
          "internalType": "uint256",
          "name": "tokenId",
          "type": "uint256"
        }
      ],
      "name": "Approval",
      "type": "event"
    },
    {
      "anonymous": false,
      "inputs": [
        {
          "indexed": true,
          "internalType": "address",
          "name": "owner",
          "type": "address"
        },
        {
          "indexed": true,
          "internalType": "address",
          "name": "operator",
          "type": "address"
        },
        {
          "indexed": false,
          "internalType": "bool",
          "name": "approved",
          "type": "bool"
        }
      ],
      "name": "ApprovalForAll",
      "type": "event"
    },
    {
      "anonymous": false,
      "inputs": [
        {
          "indexed": true,
          "internalType": "address",
          "name": "previousOwner",
          "type": "address"
        },
        {
          "indexed": true,
          "internalType": "address",
          "name": "newOwner",
          "type": "address"
        }
      ],
      "name": "OwnershipTransferred",
      "type": "event"
    },
    {
      "anonymous": false,
      "inputs": [
        {
          "indexed": true,
          "internalType": "address",
          "name": "from",
          "type": "address"
        },
        {
          "indexed": true,
          "internalType": "address",
          "name": "to",
          "type": "address"
        },
        {
          "indexed": true,
          "internalType": "uint256",
          "name": "tokenId",
          "type": "uint256"
        }
      ],
      "name": "Transfer",
      "type": "event"
    },
    {
      "inputs": [
        {
          "internalType": "uint256",
          "name": "",
          "type": "uint256"
        }
      ],
      "name": "Raiders",
      "outputs": [
        {
          "internalType": "address",
          "name": "_address",
          "type": "address"
        },
        {
          "internalType": "uint256",
          "name": "raider_id",
          "type": "uint256"
        },
        {
          "internalType": "string",
          "name": "primary_skill",
          "type": "string"
        },
        {
          "internalType": "string",
          "name": "secondary_skill",
          "type": "string"
        }
      ],
      "stateMutability": "view",
      "type": "function"
    },
    {
      "inputs": [
        {
          "internalType": "uint256",
          "name": "discord_id",
          "type": "uint256"
        },
        {
          "internalType": "string",
          "name": "achievement",
          "type": "string"
        }
      ],
      "name": "addAchievement",
      "outputs": [],
      "stateMutability": "nonpayable",
      "type": "function"
    },
    {
      "inputs": [
        {
          "internalType": "address",
          "name": "to",
          "type": "address"
        },
        {
          "internalType": "uint256",
          "name": "tokenId",
          "type": "uint256"
        }
      ],
      "name": "approve",
      "outputs": [],
      "stateMutability": "nonpayable",
      "type": "function"
    },
    {
      "inputs": [
        {
          "internalType": "address",
          "name": "owner",
          "type": "address"
        }
      ],
      "name": "balanceOf",
      "outputs": [
        {
          "internalType": "uint256",
          "name": "",
          "type": "uint256"
        }
      ],
      "stateMutability": "view",
      "type": "function"
    },
    {
      "inputs": [
        {
          "internalType": "uint256",
          "name": "nft_id",
          "type": "uint256"
        },
        {
          "internalType": "string",
          "name": "new_uri",
          "type": "string"
        }
      ],
      "name": "changeAvatar",
      "outputs": [],
      "stateMutability": "nonpayable",
      "type": "function"
    },
    {
      "inputs": [
        {
          "internalType": "uint256",
          "name": "discord_id",
          "type": "uint256"
        },
        {
          "internalType": "string",
          "name": "primary",
          "type": "string"
        },
        {
          "internalType": "string",
          "name": "secondary",
          "type": "string"
        },
        {
          "internalType": "address",
          "name": "_address",
          "type": "address"
        },
        {
          "internalType": "string",
          "name": "uri",
          "type": "string"
        }
      ],
      "name": "createProfile",
      "outputs": [],
      "stateMutability": "nonpayable",
      "type": "function"
    },
    {
      "inputs": [
        {
          "internalType": "uint256",
          "name": "tokenId",
          "type": "uint256"
        }
      ],
      "name": "getApproved",
      "outputs": [
        {
          "internalType": "address",
          "name": "",
          "type": "address"
        }
      ],
      "stateMutability": "view",
      "type": "function"
    },
    {
      "inputs": [],
      "name": "id",
      "outputs": [
        {
          "internalType": "uint256",
          "name": "",
          "type": "uint256"
        }
      ],
      "stateMutability": "view",
      "type": "function"
    },
    {
      "inputs": [
        {
          "internalType": "address",
          "name": "owner",
          "type": "address"
        },
        {
          "internalType": "address",
          "name": "operator",
          "type": "address"
        }
      ],
      "name": "isApprovedForAll",
      "outputs": [
        {
          "internalType": "bool",
          "name": "",
          "type": "bool"
        }
      ],
      "stateMutability": "view",
      "type": "function"
    },
    {
      "inputs": [
        {
          "internalType": "uint256",
          "name": "discord_id",
          "type": "uint256"
        },
        {
          "internalType": "string",
          "name": "uri",
          "type": "string"
        }
      ],
      "name": "mintRaider",
      "outputs": [],
      "stateMutability": "nonpayable",
      "type": "function"
    },
    {
      "inputs": [],
      "name": "name",
      "outputs": [
        {
          "internalType": "string",
          "name": "",
          "type": "string"
        }
      ],
      "stateMutability": "view",
      "type": "function"
    },
    {
      "inputs": [],
      "name": "owner",
      "outputs": [
        {
          "internalType": "address",
          "name": "",
          "type": "address"
        }
      ],
      "stateMutability": "view",
      "type": "function"
    },
    {
      "inputs": [
        {
          "internalType": "uint256",
          "name": "tokenId",
          "type": "uint256"
        }
      ],
      "name": "ownerOf",
      "outputs": [
        {
          "internalType": "address",
          "name": "",
          "type": "address"
        }
      ],
      "stateMutability": "view",
      "type": "function"
    },
    {
      "inputs": [],
      "name": "renounceOwnership",
      "outputs": [],
      "stateMutability": "nonpayable",
      "type": "function"
    },
    {
      "inputs": [
        {
          "internalType": "address",
          "name": "from",
          "type": "address"
        },
        {
          "internalType": "address",
          "name": "to",
          "type": "address"
        },
        {
          "internalType": "uint256",
          "name": "tokenId",
          "type": "uint256"
        }
      ],
      "name": "safeTransferFrom",
      "outputs": [],
      "stateMutability": "nonpayable",
      "type": "function"
    },
    {
      "inputs": [
        {
          "internalType": "address",
          "name": "from",
          "type": "address"
        },
        {
          "internalType": "address",
          "name": "to",
          "type": "address"
        },
        {
          "internalType": "uint256",
          "name": "tokenId",
          "type": "uint256"
        },
        {
          "internalType": "bytes",
          "name": "_data",
          "type": "bytes"
        }
      ],
      "name": "safeTransferFrom",
      "outputs": [],
      "stateMutability": "nonpayable",
      "type": "function"
    },
    {
      "inputs": [
        {
          "internalType": "address",
          "name": "operator",
          "type": "address"
        },
        {
          "internalType": "bool",
          "name": "approved",
          "type": "bool"
        }
      ],
      "name": "setApprovalForAll",
      "outputs": [],
      "stateMutability": "nonpayable",
      "type": "function"
    },
    {
      "inputs": [
        {
          "internalType": "bytes4",
          "name": "interfaceId",
          "type": "bytes4"
        }
      ],
      "name": "supportsInterface",
      "outputs": [
        {
          "internalType": "bool",
          "name": "",
          "type": "bool"
        }
      ],
      "stateMutability": "view",
      "type": "function"
    },
    {
      "inputs": [],
      "name": "symbol",
      "outputs": [
        {
          "internalType": "string",
          "name": "",
          "type": "string"
        }
      ],
      "stateMutability": "view",
      "type": "function"
    },
    {
      "inputs": [
        {
          "internalType": "uint256",
          "name": "tokenId",
          "type": "uint256"
        }
      ],
      "name": "tokenURI",
      "outputs": [
        {
          "internalType": "string",
          "name": "",
          "type": "string"
        }
      ],
      "stateMutability": "view",
      "type": "function"
    },
    {
      "inputs": [
        {
          "internalType": "address",
          "name": "from",
          "type": "address"
        },
        {
          "internalType": "address",
          "name": "to",
          "type": "address"
        },
        {
          "internalType": "uint256",
          "name": "tokenId",
          "type": "uint256"
        }
      ],
      "name": "transferFrom",
      "outputs": [],
      "stateMutability": "nonpayable",
      "type": "function"
    },
    {
      "inputs": [
        {
          "internalType": "address",
          "name": "newOwner",
          "type": "address"
        }
      ],
      "name": "transferOwnership",
      "outputs": [],
      "stateMutability": "nonpayable",
      "type": "function"
    }
  ],
  "bytecode": "0x608060405260016009553480156200001657600080fd5b506040518060400160405280601481526020017f526169646572204775696c6420417661746172730000000000000000000000008152506040518060400160405280600681526020017f524149444552000000000000000000000000000000000000000000000000000081525081600090805190602001906200009b929190620001ab565b508060019080519060200190620000b4929190620001ab565b505050620000d7620000cb620000dd60201b60201c565b620000e560201b60201c565b620002c0565b600033905090565b6000600760009054906101000a900473ffffffffffffffffffffffffffffffffffffffff16905081600760006101000a81548173ffffffffffffffffffffffffffffffffffffffff021916908373ffffffffffffffffffffffffffffffffffffffff1602179055508173ffffffffffffffffffffffffffffffffffffffff168173ffffffffffffffffffffffffffffffffffffffff167f8be0079c531659141344cd1fd0a4f28419497f9722a3daafe3b4186f6b6457e060405160405180910390a35050565b828054620001b9906200028a565b90600052602060002090601f016020900481019282620001dd576000855562000229565b82601f10620001f857805160ff191683800117855562000229565b8280016001018555821562000229579182015b82811115620002285782518255916020019190600101906200020b565b5b5090506200023891906200023c565b5090565b5b80821115620002575760008160009055506001016200023d565b5090565b7f4e487b7100000000000000000000000000000000000000000000000000000000600052602260045260246000fd5b60006002820490506001821680620002a357607f821691505b60208210811415620002ba57620002b96200025b565b5b50919050565b61397d80620002d06000396000f3fe608060405234801561001057600080fd5b50600436106101425760003560e01c80638da5cb5b116100b8578063c87b56dd1161007c578063c87b56dd1461034d578063d776f01e1461037d578063dd045d02146103b0578063e985e9c5146103cc578063f2fde38b146103fc578063fadf96581461041857610142565b80638da5cb5b146102bb57806395d89b41146102d9578063a22cb465146102f7578063af640d0f14610313578063b88d4fde1461033157610142565b806323b872dd1161010a57806323b872dd146101fd57806342842e0e1461021957806355a65138146102355780636352211e1461025157806370a0823114610281578063715018a6146102b157610142565b806301ffc9a71461014757806302cc08d61461017757806306fdde0314610193578063081812fc146101b1578063095ea7b3146101e1575b600080fd5b610161600480360381019061015c91906124ef565b610434565b60405161016e9190612537565b60405180910390f35b610191600480360381019061018c91906125ed565b610516565b005b61019b6105e9565b6040516101a891906126e6565b60405180910390f35b6101cb60048036038101906101c69190612708565b61067b565b6040516101d89190612776565b60405180910390f35b6101fb60048036038101906101f691906127bd565b610700565b005b610217600480360381019061021291906127fd565b610818565b005b610233600480360381019061022e91906127fd565b610878565b005b61024f600480360381019061024a91906125ed565b610898565b005b61026b60048036038101906102669190612708565b6109e0565b6040516102789190612776565b60405180910390f35b61029b60048036038101906102969190612850565b610a92565b6040516102a8919061288c565b60405180910390f35b6102b9610b4a565b005b6102c3610bd2565b6040516102d09190612776565b60405180910390f35b6102e1610bfc565b6040516102ee91906126e6565b60405180910390f35b610311600480360381019061030c91906128d3565b610c8e565b005b61031b610ca4565b604051610328919061288c565b60405180910390f35b61034b60048036038101906103469190612a43565b610caa565b005b61036760048036038101906103629190612708565b610d0c565b60405161037491906126e6565b60405180910390f35b61039760048036038101906103929190612708565b610e5e565b6040516103a79493929190612ac6565b60405180910390f35b6103ca60048036038101906103c591906125ed565b610fbe565b005b6103e660048036038101906103e19190612b19565b61108d565b6040516103f39190612537565b60405180910390f35b61041660048036038101906104119190612850565b611121565b005b610432600480360381019061042d9190612b59565b611219565b005b60007f80ac58cd000000000000000000000000000000000000000000000000000000007bffffffffffffffffffffffffffffffffffffffffffffffffffffffff1916827bffffffffffffffffffffffffffffffffffffffffffffffffffffffff191614806104ff57507f5b5e139f000000000000000000000000000000000000000000000000000000007bffffffffffffffffffffffffffffffffffffffffffffffffffffffff1916827bffffffffffffffffffffffffffffffffffffffffffffffffffffffff1916145b8061050f575061050e82611461565b5b9050919050565b61051e6114cb565b73ffffffffffffffffffffffffffffffffffffffff1661053c610bd2565b73ffffffffffffffffffffffffffffffffffffffff1614610592576040517f08c379a000000000000000000000000000000000000000000000000000000000815260040161058990612c81565b60405180910390fd5b600860008481526020019081526020016000206004018282909180600181540180825580915050600190039060005260206000200160009091929091929091929091925091906105e39291906121fd565b50505050565b6060600080546105f890612cd0565b80601f016020809104026020016040519081016040528092919081815260200182805461062490612cd0565b80156106715780601f1061064657610100808354040283529160200191610671565b820191906000526020600020905b81548152906001019060200180831161065457829003601f168201915b5050505050905090565b6000610686826114d3565b6106c5576040517f08c379a00000000000000000000000000000000000000000000000000000000081526004016106bc90612d74565b60405180910390fd5b6004600083815260200190815260200160002060009054906101000a900473ffffffffffffffffffffffffffffffffffffffff169050919050565b600061070b826109e0565b90508073ffffffffffffffffffffffffffffffffffffffff168373ffffffffffffffffffffffffffffffffffffffff16141561077c576040517f08c379a000000000000000000000000000000000000000000000000000000000815260040161077390612e06565b60405180910390fd5b8073ffffffffffffffffffffffffffffffffffffffff1661079b6114cb565b73ffffffffffffffffffffffffffffffffffffffff1614806107ca57506107c9816107c46114cb565b61108d565b5b610809576040517f08c379a000000000000000000000000000000000000000000000000000000000815260040161080090612e98565b60405180910390fd5b610813838361153f565b505050565b6108296108236114cb565b826115f8565b610868576040517f08c379a000000000000000000000000000000000000000000000000000000000815260040161085f90612f2a565b60405180910390fd5b6108738383836116d6565b505050565b61089383838360405180602001604052806000815250610caa565b505050565b6108a06114cb565b73ffffffffffffffffffffffffffffffffffffffff166108be610bd2565b73ffffffffffffffffffffffffffffffffffffffff1614610914576040517f08c379a000000000000000000000000000000000000000000000000000000000815260040161090b90612c81565b60405180910390fd5b60095460086000858152602001908152602001600020600101819055506109736008600085815260200190815260200160002060000160009054906101000a900473ffffffffffffffffffffffffffffffffffffffff1660095461193d565b6109c360095483838080601f016020809104026020016040519081016040528093929190818152602001838380828437600081840152601f19601f82011690508083019250505050505050611b17565b600960008154809291906109d690612f79565b9190505550505050565b6000806002600084815260200190815260200160002060009054906101000a900473ffffffffffffffffffffffffffffffffffffffff169050600073ffffffffffffffffffffffffffffffffffffffff168173ffffffffffffffffffffffffffffffffffffffff161415610a89576040517f08c379a0000000000000000000000000000000000000000000000000000000008152600401610a8090613034565b60405180910390fd5b80915050919050565b60008073ffffffffffffffffffffffffffffffffffffffff168273ffffffffffffffffffffffffffffffffffffffff161415610b03576040517f08c379a0000000000000000000000000000000000000000000000000000000008152600401610afa906130c6565b60405180910390fd5b600360008373ffffffffffffffffffffffffffffffffffffffff1673ffffffffffffffffffffffffffffffffffffffff168152602001908152602001600020549050919050565b610b526114cb565b73ffffffffffffffffffffffffffffffffffffffff16610b70610bd2565b73ffffffffffffffffffffffffffffffffffffffff1614610bc6576040517f08c379a0000000000000000000000000000000000000000000000000000000008152600401610bbd90612c81565b60405180910390fd5b610bd06000611b8b565b565b6000600760009054906101000a900473ffffffffffffffffffffffffffffffffffffffff16905090565b606060018054610c0b90612cd0565b80601f0160208091040260200160405190810160405280929190818152602001828054610c3790612cd0565b8015610c845780601f10610c5957610100808354040283529160200191610c84565b820191906000526020600020905b815481529060010190602001808311610c6757829003601f168201915b5050505050905090565b610ca0610c996114cb565b8383611c51565b5050565b60095481565b610cbb610cb56114cb565b836115f8565b610cfa576040517f08c379a0000000000000000000000000000000000000000000000000000000008152600401610cf190612f2a565b60405180910390fd5b610d0684848484611dbe565b50505050565b6060610d17826114d3565b610d56576040517f08c379a0000000000000000000000000000000000000000000000000000000008152600401610d4d90613158565b60405180910390fd5b6000600660008481526020019081526020016000208054610d7690612cd0565b80601f0160208091040260200160405190810160405280929190818152602001828054610da290612cd0565b8015610def5780601f10610dc457610100808354040283529160200191610def565b820191906000526020600020905b815481529060010190602001808311610dd257829003601f168201915b505050505090506000610e00611e1a565b9050600081511415610e16578192505050610e59565b600082511115610e4b578082604051602001610e339291906131b4565b60405160208183030381529060405292505050610e59565b610e5484611e31565b925050505b919050565b60086020528060005260406000206000915090508060000160009054906101000a900473ffffffffffffffffffffffffffffffffffffffff1690806001015490806002018054610ead90612cd0565b80601f0160208091040260200160405190810160405280929190818152602001828054610ed990612cd0565b8015610f265780601f10610efb57610100808354040283529160200191610f26565b820191906000526020600020905b815481529060010190602001808311610f0957829003601f168201915b505050505090806003018054610f3b90612cd0565b80601f0160208091040260200160405190810160405280929190818152602001828054610f6790612cd0565b8015610fb45780601f10610f8957610100808354040283529160200191610fb4565b820191906000526020600020905b815481529060010190602001808311610f9757829003601f168201915b5050505050905084565b610fc66114cb565b73ffffffffffffffffffffffffffffffffffffffff16610fe4610bd2565b73ffffffffffffffffffffffffffffffffffffffff161461103a576040517f08c379a000000000000000000000000000000000000000000000000000000000815260040161103190612c81565b60405180910390fd5b6110888383838080601f016020809104026020016040519081016040528093929190818152602001838380828437600081840152601f19601f82011690508083019250505050505050611b17565b505050565b6000600560008473ffffffffffffffffffffffffffffffffffffffff1673ffffffffffffffffffffffffffffffffffffffff16815260200190815260200160002060008373ffffffffffffffffffffffffffffffffffffffff1673ffffffffffffffffffffffffffffffffffffffff16815260200190815260200160002060009054906101000a900460ff16905092915050565b6111296114cb565b73ffffffffffffffffffffffffffffffffffffffff16611147610bd2565b73ffffffffffffffffffffffffffffffffffffffff161461119d576040517f08c379a000000000000000000000000000000000000000000000000000000000815260040161119490612c81565b60405180910390fd5b600073ffffffffffffffffffffffffffffffffffffffff168173ffffffffffffffffffffffffffffffffffffffff16141561120d576040517f08c379a00000000000000000000000000000000000000000000000000000000081526004016112049061324a565b60405180910390fd5b61121681611b8b565b50565b6112216114cb565b73ffffffffffffffffffffffffffffffffffffffff1661123f610bd2565b73ffffffffffffffffffffffffffffffffffffffff1614611295576040517f08c379a000000000000000000000000000000000000000000000000000000000815260040161128c90612c81565b60405180910390fd5b61129d612283565b87878080601f016020809104026020016040519081016040528093929190818152602001838380828437600081840152601f19601f82011690508083019250505050505050816040018190525085858080601f016020809104026020016040519081016040528093929190818152602001838380828437600081840152601f19601f82011690508083019250505050505050816060018190525083816000019073ffffffffffffffffffffffffffffffffffffffff16908173ffffffffffffffffffffffffffffffffffffffff168152505080600860008b815260200190815260200160002060008201518160000160006101000a81548173ffffffffffffffffffffffffffffffffffffffff021916908373ffffffffffffffffffffffffffffffffffffffff1602179055506020820151816001015560408201518160020190805190602001906113f09291906122cf565b50606082015181600301908051906020019061140d9291906122cf565b50608082015181600401908051906020019061142a929190612355565b5060a08201518160050190805190602001906114479291906123b5565b50905050611456898484610898565b505050505050505050565b60007f01ffc9a7000000000000000000000000000000000000000000000000000000007bffffffffffffffffffffffffffffffffffffffffffffffffffffffff1916827bffffffffffffffffffffffffffffffffffffffffffffffffffffffff1916149050919050565b600033905090565b60008073ffffffffffffffffffffffffffffffffffffffff166002600084815260200190815260200160002060009054906101000a900473ffffffffffffffffffffffffffffffffffffffff1673ffffffffffffffffffffffffffffffffffffffff1614159050919050565b816004600083815260200190815260200160002060006101000a81548173ffffffffffffffffffffffffffffffffffffffff021916908373ffffffffffffffffffffffffffffffffffffffff160217905550808273ffffffffffffffffffffffffffffffffffffffff166115b2836109e0565b73ffffffffffffffffffffffffffffffffffffffff167f8c5be1e5ebec7d5bd14f71427d1e84f3dd0314c0f7b2291e5b200ac8c7c3b92560405160405180910390a45050565b6000611603826114d3565b611642576040517f08c379a0000000000000000000000000000000000000000000000000000000008152600401611639906132dc565b60405180910390fd5b600061164d836109e0565b90508073ffffffffffffffffffffffffffffffffffffffff168473ffffffffffffffffffffffffffffffffffffffff1614806116bc57508373ffffffffffffffffffffffffffffffffffffffff166116a48461067b565b73ffffffffffffffffffffffffffffffffffffffff16145b806116cd57506116cc818561108d565b5b91505092915050565b8273ffffffffffffffffffffffffffffffffffffffff166116f6826109e0565b73ffffffffffffffffffffffffffffffffffffffff161461174c576040517f08c379a00000000000000000000000000000000000000000000000000000000081526004016117439061336e565b60405180910390fd5b600073ffffffffffffffffffffffffffffffffffffffff168273ffffffffffffffffffffffffffffffffffffffff1614156117bc576040517f08c379a00000000000000000000000000000000000000000000000000000000081526004016117b390613400565b60405180910390fd5b6117c7838383611ed8565b6117d260008261153f565b6001600360008573ffffffffffffffffffffffffffffffffffffffff1673ffffffffffffffffffffffffffffffffffffffff16815260200190815260200160002060008282546118229190613420565b925050819055506001600360008473ffffffffffffffffffffffffffffffffffffffff1673ffffffffffffffffffffffffffffffffffffffff16815260200190815260200160002060008282546118799190613454565b92505081905550816002600083815260200190815260200160002060006101000a81548173ffffffffffffffffffffffffffffffffffffffff021916908373ffffffffffffffffffffffffffffffffffffffff160217905550808273ffffffffffffffffffffffffffffffffffffffff168473ffffffffffffffffffffffffffffffffffffffff167fddf252ad1be2c89b69c2b068fc378daa952ba7f163c4a11628f55a4df523b3ef60405160405180910390a4611938838383611edd565b505050565b600073ffffffffffffffffffffffffffffffffffffffff168273ffffffffffffffffffffffffffffffffffffffff1614156119ad576040517f08c379a00000000000000000000000000000000000000000000000000000000081526004016119a4906134f6565b60405180910390fd5b6119b6816114d3565b156119f6576040517f08c379a00000000000000000000000000000000000000000000000000000000081526004016119ed90613562565b60405180910390fd5b611a0260008383611ed8565b6001600360008473ffffffffffffffffffffffffffffffffffffffff1673ffffffffffffffffffffffffffffffffffffffff1681526020019081526020016000206000828254611a529190613454565b92505081905550816002600083815260200190815260200160002060006101000a81548173ffffffffffffffffffffffffffffffffffffffff021916908373ffffffffffffffffffffffffffffffffffffffff160217905550808273ffffffffffffffffffffffffffffffffffffffff16600073ffffffffffffffffffffffffffffffffffffffff167fddf252ad1be2c89b69c2b068fc378daa952ba7f163c4a11628f55a4df523b3ef60405160405180910390a4611b1360008383611edd565b5050565b611b20826114d3565b611b5f576040517f08c379a0000000000000000000000000000000000000000000000000000000008152600401611b56906135f4565b60405180910390fd5b80600660008481526020019081526020016000209080519060200190611b869291906122cf565b505050565b6000600760009054906101000a900473ffffffffffffffffffffffffffffffffffffffff16905081600760006101000a81548173ffffffffffffffffffffffffffffffffffffffff021916908373ffffffffffffffffffffffffffffffffffffffff1602179055508173ffffffffffffffffffffffffffffffffffffffff168173ffffffffffffffffffffffffffffffffffffffff167f8be0079c531659141344cd1fd0a4f28419497f9722a3daafe3b4186f6b6457e060405160405180910390a35050565b8173ffffffffffffffffffffffffffffffffffffffff168373ffffffffffffffffffffffffffffffffffffffff161415611cc0576040517f08c379a0000000000000000000000000000000000000000000000000000000008152600401611cb790613660565b60405180910390fd5b80600560008573ffffffffffffffffffffffffffffffffffffffff1673ffffffffffffffffffffffffffffffffffffffff16815260200190815260200160002060008473ffffffffffffffffffffffffffffffffffffffff1673ffffffffffffffffffffffffffffffffffffffff16815260200190815260200160002060006101000a81548160ff0219169083151502179055508173ffffffffffffffffffffffffffffffffffffffff168373ffffffffffffffffffffffffffffffffffffffff167f17307eab39ab6107e8899845ad3d59bd9653f200f220920489ca2b5937696c3183604051611db19190612537565b60405180910390a3505050565b611dc98484846116d6565b611dd584848484611ee2565b611e14576040517f08c379a0000000000000000000000000000000000000000000000000000000008152600401611e0b906136f2565b60405180910390fd5b50505050565b606060405180602001604052806000815250905090565b6060611e3c826114d3565b611e7b576040517f08c379a0000000000000000000000000000000000000000000000000000000008152600401611e7290613784565b60405180910390fd5b6000611e85611e1a565b90506000815111611ea55760405180602001604052806000815250611ed0565b80611eaf84612079565b604051602001611ec09291906131b4565b6040516020818303038152906040525b915050919050565b505050565b505050565b6000611f038473ffffffffffffffffffffffffffffffffffffffff166121da565b1561206c578373ffffffffffffffffffffffffffffffffffffffff1663150b7a02611f2c6114cb565b8786866040518563ffffffff1660e01b8152600401611f4e94939291906137f9565b602060405180830381600087803b158015611f6857600080fd5b505af1925050508015611f9957506040513d601f19601f82011682018060405250810190611f96919061385a565b60015b61201c573d8060008114611fc9576040519150601f19603f3d011682016040523d82523d6000602084013e611fce565b606091505b50600081511415612014576040517f08c379a000000000000000000000000000000000000000000000000000000000815260040161200b906136f2565b60405180910390fd5b805181602001fd5b63150b7a0260e01b7bffffffffffffffffffffffffffffffffffffffffffffffffffffffff1916817bffffffffffffffffffffffffffffffffffffffffffffffffffffffff191614915050612071565b600190505b949350505050565b606060008214156120c1576040518060400160405280600181526020017f300000000000000000000000000000000000000000000000000000000000000081525090506121d5565b600082905060005b600082146120f35780806120dc90612f79565b915050600a826120ec91906138b6565b91506120c9565b60008167ffffffffffffffff81111561210f5761210e612918565b5b6040519080825280601f01601f1916602001820160405280156121415781602001600182028036833780820191505090505b5090505b600085146121ce5760018261215a9190613420565b9150600a8561216991906138e7565b60306121759190613454565b60f81b81838151811061218b5761218a613918565b5b60200101907effffffffffffffffffffffffffffffffffffffffffffffffffffffffffffff1916908160001a905350600a856121c791906138b6565b9450612145565b8093505050505b919050565b6000808273ffffffffffffffffffffffffffffffffffffffff163b119050919050565b82805461220990612cd0565b90600052602060002090601f01602090048101928261222b5760008555612272565b82601f1061224457803560ff1916838001178555612272565b82800160010185558215612272579182015b82811115612271578235825591602001919060010190612256565b5b50905061227f9190612402565b5090565b6040518060c00160405280600073ffffffffffffffffffffffffffffffffffffffff16815260200160008152602001606081526020016060815260200160608152602001606081525090565b8280546122db90612cd0565b90600052602060002090601f0160209004810192826122fd5760008555612344565b82601f1061231657805160ff1916838001178555612344565b82800160010185558215612344579182015b82811115612343578251825591602001919060010190612328565b5b5090506123519190612402565b5090565b8280548282559060005260206000209081019282156123a4579160200282015b828111156123a35782518290805190602001906123939291906122cf565b5091602001919060010190612375565b5b5090506123b1919061241f565b5090565b8280548282559060005260206000209081019282156123f1579160200282015b828111156123f05782518255916020019190600101906123d5565b5b5090506123fe9190612402565b5090565b5b8082111561241b576000816000905550600101612403565b5090565b5b8082111561243f57600081816124369190612443565b50600101612420565b5090565b50805461244f90612cd0565b6000825580601f106124615750612480565b601f01602090049060005260206000209081019061247f9190612402565b5b50565b6000604051905090565b600080fd5b600080fd5b60007fffffffff0000000000000000000000000000000000000000000000000000000082169050919050565b6124cc81612497565b81146124d757600080fd5b50565b6000813590506124e9816124c3565b92915050565b6000602082840312156125055761250461248d565b5b6000612513848285016124da565b91505092915050565b60008115159050919050565b6125318161251c565b82525050565b600060208201905061254c6000830184612528565b92915050565b6000819050919050565b61256581612552565b811461257057600080fd5b50565b6000813590506125828161255c565b92915050565b600080fd5b600080fd5b600080fd5b60008083601f8401126125ad576125ac612588565b5b8235905067ffffffffffffffff8111156125ca576125c961258d565b5b6020830191508360018202830111156125e6576125e5612592565b5b9250929050565b6000806000604084860312156126065761260561248d565b5b600061261486828701612573565b935050602084013567ffffffffffffffff81111561263557612634612492565b5b61264186828701612597565b92509250509250925092565b600081519050919050565b600082825260208201905092915050565b60005b8381101561268757808201518184015260208101905061266c565b83811115612696576000848401525b50505050565b6000601f19601f8301169050919050565b60006126b88261264d565b6126c28185612658565b93506126d2818560208601612669565b6126db8161269c565b840191505092915050565b6000602082019050818103600083015261270081846126ad565b905092915050565b60006020828403121561271e5761271d61248d565b5b600061272c84828501612573565b91505092915050565b600073ffffffffffffffffffffffffffffffffffffffff82169050919050565b600061276082612735565b9050919050565b61277081612755565b82525050565b600060208201905061278b6000830184612767565b92915050565b61279a81612755565b81146127a557600080fd5b50565b6000813590506127b781612791565b92915050565b600080604083850312156127d4576127d361248d565b5b60006127e2858286016127a8565b92505060206127f385828601612573565b9150509250929050565b6000806000606084860312156128165761281561248d565b5b6000612824868287016127a8565b9350506020612835868287016127a8565b925050604061284686828701612573565b9150509250925092565b6000602082840312156128665761286561248d565b5b6000612874848285016127a8565b91505092915050565b61288681612552565b82525050565b60006020820190506128a1600083018461287d565b92915050565b6128b08161251c565b81146128bb57600080fd5b50565b6000813590506128cd816128a7565b92915050565b600080604083850312156128ea576128e961248d565b5b60006128f8858286016127a8565b9250506020612909858286016128be565b9150509250929050565b600080fd5b7f4e487b7100000000000000000000000000000000000000000000000000000000600052604160045260246000fd5b6129508261269c565b810181811067ffffffffffffffff8211171561296f5761296e612918565b5b80604052505050565b6000612982612483565b905061298e8282612947565b919050565b600067ffffffffffffffff8211156129ae576129ad612918565b5b6129b78261269c565b9050602081019050919050565b82818337600083830152505050565b60006129e66129e184612993565b612978565b905082815260208101848484011115612a0257612a01612913565b5b612a0d8482856129c4565b509392505050565b600082601f830112612a2a57612a29612588565b5b8135612a3a8482602086016129d3565b91505092915050565b60008060008060808587031215612a5d57612a5c61248d565b5b6000612a6b878288016127a8565b9450506020612a7c878288016127a8565b9350506040612a8d87828801612573565b925050606085013567ffffffffffffffff811115612aae57612aad612492565b5b612aba87828801612a15565b91505092959194509250565b6000608082019050612adb6000830187612767565b612ae8602083018661287d565b8181036040830152612afa81856126ad565b90508181036060830152612b0e81846126ad565b905095945050505050565b60008060408385031215612b3057612b2f61248d565b5b6000612b3e858286016127a8565b9250506020612b4f858286016127a8565b9150509250929050565b60008060008060008060008060a0898b031215612b7957612b7861248d565b5b6000612b878b828c01612573565b985050602089013567ffffffffffffffff811115612ba857612ba7612492565b5b612bb48b828c01612597565b9750975050604089013567ffffffffffffffff811115612bd757612bd6612492565b5b612be38b828c01612597565b95509550506060612bf68b828c016127a8565b935050608089013567ffffffffffffffff811115612c1757612c16612492565b5b612c238b828c01612597565b92509250509295985092959890939650565b7f4f776e61626c653a2063616c6c6572206973206e6f7420746865206f776e6572600082015250565b6000612c6b602083612658565b9150612c7682612c35565b602082019050919050565b60006020820190508181036000830152612c9a81612c5e565b9050919050565b7f4e487b7100000000000000000000000000000000000000000000000000000000600052602260045260246000fd5b60006002820490506001821680612ce857607f821691505b60208210811415612cfc57612cfb612ca1565b5b50919050565b7f4552433732313a20617070726f76656420717565727920666f72206e6f6e657860008201527f697374656e7420746f6b656e0000000000000000000000000000000000000000602082015250565b6000612d5e602c83612658565b9150612d6982612d02565b604082019050919050565b60006020820190508181036000830152612d8d81612d51565b9050919050565b7f4552433732313a20617070726f76616c20746f2063757272656e74206f776e6560008201527f7200000000000000000000000000000000000000000000000000000000000000602082015250565b6000612df0602183612658565b9150612dfb82612d94565b604082019050919050565b60006020820190508181036000830152612e1f81612de3565b9050919050565b7f4552433732313a20617070726f76652063616c6c6572206973206e6f74206f7760008201527f6e6572206e6f7220617070726f76656420666f7220616c6c0000000000000000602082015250565b6000612e82603883612658565b9150612e8d82612e26565b604082019050919050565b60006020820190508181036000830152612eb181612e75565b9050919050565b7f4552433732313a207472616e736665722063616c6c6572206973206e6f74206f60008201527f776e6572206e6f7220617070726f766564000000000000000000000000000000602082015250565b6000612f14603183612658565b9150612f1f82612eb8565b604082019050919050565b60006020820190508181036000830152612f4381612f07565b9050919050565b7f4e487b7100000000000000000000000000000000000000000000000000000000600052601160045260246000fd5b6000612f8482612552565b91507fffffffffffffffffffffffffffffffffffffffffffffffffffffffffffffffff821415612fb757612fb6612f4a565b5b600182019050919050565b7f4552433732313a206f776e657220717565727920666f72206e6f6e657869737460008201527f656e7420746f6b656e0000000000000000000000000000000000000000000000602082015250565b600061301e602983612658565b915061302982612fc2565b604082019050919050565b6000602082019050818103600083015261304d81613011565b9050919050565b7f4552433732313a2062616c616e636520717565727920666f7220746865207a6560008201527f726f206164647265737300000000000000000000000000000000000000000000602082015250565b60006130b0602a83612658565b91506130bb82613054565b604082019050919050565b600060208201905081810360008301526130df816130a3565b9050919050565b7f45524337323155524953746f726167653a2055524920717565727920666f722060008201527f6e6f6e6578697374656e7420746f6b656e000000000000000000000000000000602082015250565b6000613142603183612658565b915061314d826130e6565b604082019050919050565b6000602082019050818103600083015261317181613135565b9050919050565b600081905092915050565b600061318e8261264d565b6131988185613178565b93506131a8818560208601612669565b80840191505092915050565b60006131c08285613183565b91506131cc8284613183565b91508190509392505050565b7f4f776e61626c653a206e6577206f776e657220697320746865207a65726f206160008201527f6464726573730000000000000000000000000000000000000000000000000000602082015250565b6000613234602683612658565b915061323f826131d8565b604082019050919050565b6000602082019050818103600083015261326381613227565b9050919050565b7f4552433732313a206f70657261746f7220717565727920666f72206e6f6e657860008201527f697374656e7420746f6b656e0000000000000000000000000000000000000000602082015250565b60006132c6602c83612658565b91506132d18261326a565b604082019050919050565b600060208201905081810360008301526132f5816132b9565b9050919050565b7f4552433732313a207472616e736665722066726f6d20696e636f72726563742060008201527f6f776e6572000000000000000000000000000000000000000000000000000000602082015250565b6000613358602583612658565b9150613363826132fc565b604082019050919050565b600060208201905081810360008301526133878161334b565b9050919050565b7f4552433732313a207472616e7366657220746f20746865207a65726f2061646460008201527f7265737300000000000000000000000000000000000000000000000000000000602082015250565b60006133ea602483612658565b91506133f58261338e565b604082019050919050565b60006020820190508181036000830152613419816133dd565b9050919050565b600061342b82612552565b915061343683612552565b92508282101561344957613448612f4a565b5b828203905092915050565b600061345f82612552565b915061346a83612552565b9250827fffffffffffffffffffffffffffffffffffffffffffffffffffffffffffffffff0382111561349f5761349e612f4a565b5b828201905092915050565b7f4552433732313a206d696e7420746f20746865207a65726f2061646472657373600082015250565b60006134e0602083612658565b91506134eb826134aa565b602082019050919050565b6000602082019050818103600083015261350f816134d3565b9050919050565b7f4552433732313a20746f6b656e20616c7265616479206d696e74656400000000600082015250565b600061354c601c83612658565b915061355782613516565b602082019050919050565b6000602082019050818103600083015261357b8161353f565b9050919050565b7f45524337323155524953746f726167653a2055524920736574206f66206e6f6e60008201527f6578697374656e7420746f6b656e000000000000000000000000000000000000602082015250565b60006135de602e83612658565b91506135e982613582565b604082019050919050565b6000602082019050818103600083015261360d816135d1565b9050919050565b7f4552433732313a20617070726f766520746f2063616c6c657200000000000000600082015250565b600061364a601983612658565b915061365582613614565b602082019050919050565b600060208201905081810360008301526136798161363d565b9050919050565b7f4552433732313a207472616e7366657220746f206e6f6e20455243373231526560008201527f63656976657220696d706c656d656e7465720000000000000000000000000000602082015250565b60006136dc603283612658565b91506136e782613680565b604082019050919050565b6000602082019050818103600083015261370b816136cf565b9050919050565b7f4552433732314d657461646174613a2055524920717565727920666f72206e6f60008201527f6e6578697374656e7420746f6b656e0000000000000000000000000000000000602082015250565b600061376e602f83612658565b915061377982613712565b604082019050919050565b6000602082019050818103600083015261379d81613761565b9050919050565b600081519050919050565b600082825260208201905092915050565b60006137cb826137a4565b6137d581856137af565b93506137e5818560208601612669565b6137ee8161269c565b840191505092915050565b600060808201905061380e6000830187612767565b61381b6020830186612767565b613828604083018561287d565b818103606083015261383a81846137c0565b905095945050505050565b600081519050613854816124c3565b92915050565b6000602082840312156138705761386f61248d565b5b600061387e84828501613845565b91505092915050565b7f4e487b7100000000000000000000000000000000000000000000000000000000600052601260045260246000fd5b60006138c182612552565b91506138cc83612552565b9250826138dc576138db613887565b5b828204905092915050565b60006138f282612552565b91506138fd83612552565b92508261390d5761390c613887565b5b828206905092915050565b7f4e487b7100000000000000000000000000000000000000000000000000000000600052603260045260246000fdfea264697066735822122011b58cdab7980183a30083c0fb089d91e9199bafb4f31d6017733c7b27d5807964736f6c63430008090033",
  "linkReferences": {},
  "deployedLinkReferences": {}
}